{
  "_format": "hh-sol-artifact-1",
  "contractName": "Crowdfunding",
  "sourceName": "src/contracts/Crowdfunding.sol",
  "abi": [
    {
      "inputs": [
        {
          "internalType": "uint256",
          "name": "_projectTax",
          "type": "uint256"
        }
      ],
      "stateMutability": "nonpayable",
      "type": "constructor"
    },
    {
      "anonymous": false,
      "inputs": [
        {
          "indexed": false,
          "internalType": "uint256",
          "name": "id",
          "type": "uint256"
        },
        {
          "indexed": false,
          "internalType": "string",
          "name": "actionType",
          "type": "string"
        },
        {
          "indexed": true,
          "internalType": "address",
          "name": "executor",
          "type": "address"
        },
        {
          "indexed": false,
          "internalType": "uint256",
          "name": "timestamp",
          "type": "uint256"
        }
      ],
      "name": "Action",
      "type": "event"
    },
    {
      "inputs": [
        {
          "internalType": "uint256",
          "name": "id",
          "type": "uint256"
        },
        {
          "internalType": "string",
          "name": "email",
          "type": "string"
        }
      ],
      "name": "backProject",
      "outputs": [
        {
          "internalType": "bool",
          "name": "",
          "type": "bool"
        }
      ],
      "stateMutability": "payable",
      "type": "function"
    },
    {
      "inputs": [],
      "name": "balance",
      "outputs": [
        {
          "internalType": "uint256",
          "name": "",
          "type": "uint256"
        }
      ],
      "stateMutability": "view",
      "type": "function"
    },
    {
      "inputs": [
        {
          "internalType": "uint256",
          "name": "_taxPct",
          "type": "uint256"
        }
      ],
      "name": "changeTax",
      "outputs": [],
      "stateMutability": "nonpayable",
      "type": "function"
    },
    {
      "inputs": [
        {
          "internalType": "string",
          "name": "title",
          "type": "string"
        },
        {
          "internalType": "string",
          "name": "description",
          "type": "string"
        },
        {
          "internalType": "uint256",
          "name": "cost",
          "type": "uint256"
        },
        {
          "internalType": "uint256",
          "name": "expiresAt",
          "type": "uint256"
        }
      ],
      "name": "createProject",
      "outputs": [
        {
          "internalType": "bool",
          "name": "",
          "type": "bool"
        }
      ],
      "stateMutability": "nonpayable",
      "type": "function"
    },
    {
      "inputs": [
        {
          "internalType": "uint256",
          "name": "id",
          "type": "uint256"
        }
      ],
      "name": "deleteProject",
      "outputs": [
        {
          "components": [
            {
              "internalType": "bool",
              "name": "success",
              "type": "bool"
            },
            {
              "internalType": "address[]",
              "name": "donors",
              "type": "address[]"
            }
          ],
          "internalType": "struct Crowdfunding.DeleteProjectResult",
          "name": "",
          "type": "tuple"
        }
      ],
      "stateMutability": "nonpayable",
      "type": "function"
    },
    {
      "inputs": [
        {
          "internalType": "uint256",
          "name": "id",
          "type": "uint256"
        }
      ],
      "name": "getBackers",
      "outputs": [
        {
          "components": [
            {
              "internalType": "address",
              "name": "owner",
              "type": "address"
            },
            {
              "internalType": "string",
              "name": "email",
              "type": "string"
            },
            {
              "internalType": "uint256",
              "name": "contribution",
              "type": "uint256"
            },
            {
              "internalType": "uint256",
              "name": "timestamp",
              "type": "uint256"
            },
            {
              "internalType": "bool",
              "name": "refunded",
              "type": "bool"
            }
          ],
          "internalType": "struct Crowdfunding.backerStruct[]",
          "name": "",
          "type": "tuple[]"
        }
      ],
      "stateMutability": "view",
      "type": "function"
    },
    {
      "inputs": [
        {
          "internalType": "uint256",
          "name": "id",
          "type": "uint256"
        }
      ],
      "name": "getProject",
      "outputs": [
        {
          "components": [
            {
              "internalType": "uint256",
              "name": "id",
              "type": "uint256"
            },
            {
              "internalType": "address",
              "name": "owner",
              "type": "address"
            },
            {
              "internalType": "string",
              "name": "title",
              "type": "string"
            },
            {
              "internalType": "string",
              "name": "description",
              "type": "string"
            },
            {
              "internalType": "uint256",
              "name": "cost",
              "type": "uint256"
            },
            {
              "internalType": "uint256",
              "name": "raised",
              "type": "uint256"
            },
            {
              "internalType": "uint256",
              "name": "timestamp",
              "type": "uint256"
            },
            {
              "internalType": "uint256",
              "name": "expiresAt",
              "type": "uint256"
            },
            {
              "internalType": "uint256",
              "name": "backers",
              "type": "uint256"
            },
            {
              "internalType": "enum Crowdfunding.statusEnum",
              "name": "status",
              "type": "uint8"
            }
          ],
          "internalType": "struct Crowdfunding.projectStruct",
          "name": "",
          "type": "tuple"
        }
      ],
      "stateMutability": "view",
      "type": "function"
    },
    {
      "inputs": [],
      "name": "getProjects",
      "outputs": [
        {
          "components": [
            {
              "internalType": "uint256",
              "name": "id",
              "type": "uint256"
            },
            {
              "internalType": "address",
              "name": "owner",
              "type": "address"
            },
            {
              "internalType": "string",
              "name": "title",
              "type": "string"
            },
            {
              "internalType": "string",
              "name": "description",
              "type": "string"
            },
            {
              "internalType": "uint256",
              "name": "cost",
              "type": "uint256"
            },
            {
              "internalType": "uint256",
              "name": "raised",
              "type": "uint256"
            },
            {
              "internalType": "uint256",
              "name": "timestamp",
              "type": "uint256"
            },
            {
              "internalType": "uint256",
              "name": "expiresAt",
              "type": "uint256"
            },
            {
              "internalType": "uint256",
              "name": "backers",
              "type": "uint256"
            },
            {
              "internalType": "enum Crowdfunding.statusEnum",
              "name": "status",
              "type": "uint8"
            }
          ],
          "internalType": "struct Crowdfunding.projectStruct[]",
          "name": "",
          "type": "tuple[]"
        }
      ],
      "stateMutability": "view",
      "type": "function"
    },
    {
      "inputs": [],
      "name": "owner",
      "outputs": [
        {
          "internalType": "address",
          "name": "",
          "type": "address"
        }
      ],
      "stateMutability": "view",
      "type": "function"
    },
    {
      "inputs": [
        {
          "internalType": "uint256",
          "name": "id",
          "type": "uint256"
        }
      ],
      "name": "payOutProject",
      "outputs": [
        {
          "internalType": "bool",
          "name": "",
          "type": "bool"
        }
      ],
      "stateMutability": "nonpayable",
      "type": "function"
    },
    {
      "inputs": [],
      "name": "projectCount",
      "outputs": [
        {
          "internalType": "uint256",
          "name": "",
          "type": "uint256"
        }
      ],
      "stateMutability": "view",
      "type": "function"
    },
    {
      "inputs": [
        {
          "internalType": "uint256",
          "name": "",
          "type": "uint256"
        }
      ],
      "name": "projectExist",
      "outputs": [
        {
          "internalType": "bool",
          "name": "",
          "type": "bool"
        }
      ],
      "stateMutability": "view",
      "type": "function"
    },
    {
      "inputs": [],
      "name": "projectTax",
      "outputs": [
        {
          "internalType": "uint256",
          "name": "",
          "type": "uint256"
        }
      ],
      "stateMutability": "view",
      "type": "function"
    },
    {
      "inputs": [],
      "name": "refundExpiredProjects",
      "outputs": [
        {
          "internalType": "uint256[]",
          "name": "",
          "type": "uint256[]"
        },
        {
          "internalType": "uint256[]",
          "name": "",
          "type": "uint256[]"
        }
      ],
      "stateMutability": "nonpayable",
      "type": "function"
    },
    {
      "inputs": [
        {
          "internalType": "uint256",
          "name": "id",
          "type": "uint256"
        }
      ],
      "name": "requestRefund",
      "outputs": [
        {
          "internalType": "bool",
          "name": "",
          "type": "bool"
        }
      ],
      "stateMutability": "nonpayable",
      "type": "function"
    },
    {
      "inputs": [],
      "name": "stats",
      "outputs": [
        {
          "internalType": "uint256",
          "name": "totalProjects",
          "type": "uint256"
        },
        {
          "internalType": "uint256",
          "name": "totalBacking",
          "type": "uint256"
        },
        {
          "internalType": "uint256",
          "name": "totalDonations",
          "type": "uint256"
        }
      ],
      "stateMutability": "view",
      "type": "function"
    },
    {
      "inputs": [
        {
          "internalType": "uint256",
          "name": "id",
          "type": "uint256"
        },
        {
          "internalType": "string",
          "name": "title",
          "type": "string"
        },
        {
          "internalType": "string",
          "name": "description",
          "type": "string"
        },
        {
          "internalType": "uint256",
          "name": "expiresAt",
          "type": "uint256"
        }
      ],
      "name": "updateProject",
      "outputs": [
        {
          "internalType": "bool",
          "name": "",
          "type": "bool"
        }
      ],
      "stateMutability": "nonpayable",
      "type": "function"
    }
  ],
  "bytecode": "0x608060405234801561001057600080fd5b50604051620026fc380380620026fc8339810160408190526100319161004b565b600080546001600160a01b03191633179055600155610064565b60006020828403121561005d57600080fd5b5051919050565b61268880620000746000396000f3fe6080604052600436106100fe5760003560e01c8063a4b2409e11610095578063c9168b7211610064578063c9168b72146102bf578063d24cd3ec146102ec578063d80528ae14610302578063dcc601281461033c578063f0f3f2c81461035e57600080fd5b8063a4b2409e14610249578063a7fa01a714610269578063b531dcba14610289578063b69ef8a8146102a957600080fd5b80638593054b116100d15780638593054b1461019e5780638da5cb5b146101de578063944173df1461021657806394ba97091461022957600080fd5b806336fbad26146101035780633e45c8af1461012c5780634cd0cb281461014e578063829a7ce61461017b575b600080fd5b34801561010f57600080fd5b5061011960025481565b6040519081526020015b60405180910390f35b34801561013857600080fd5b5061014c610147366004612110565b61038b565b005b34801561015a57600080fd5b5061016e610169366004612110565b6103e5565b6040516101239190612497565b34801561018757600080fd5b50610190610671565b60405161012392919061243c565b3480156101aa57600080fd5b506101ce6101b9366004612110565b600a6020526000908152604090205460ff1681565b6040519015158152602001610123565b3480156101ea57600080fd5b506000546101fe906001600160a01b031681565b6040516001600160a01b039091168152602001610123565b6101ce610224366004612129565b610a66565b34801561023557600080fd5b506101ce61024436600461209c565b610d4f565b34801561025557600080fd5b506101ce610264366004612110565b611135565b34801561027557600080fd5b506101ce610284366004612170565b61126f565b34801561029557600080fd5b506101ce6102a4366004612110565b611460565b3480156102b557600080fd5b5061011960035481565b3480156102cb57600080fd5b506102df6102da366004612110565b61154f565b6040516101239190612338565b3480156102f857600080fd5b5061011960015481565b34801561030e57600080fd5b5060045460055460065461032192919083565b60408051938452602084019290925290820152606001610123565b34801561034857600080fd5b50610351611692565b60405161012391906123da565b34801561036a57600080fd5b5061037e610379366004612110565b61189b565b60405161012391906124fa565b6000546001600160a01b031633146103e05760405162461bcd60e51b81526020600482015260136024820152724f776e6572207265736572766564206f6e6c7960681b60448201526064015b60405180910390fd5b600155565b60408051808201909152600081526060602082015260006007838154811061040f5761040f612606565b600091825260209091206009600a90920201015460ff166004811115610437576104376125f0565b1461047f5760405162461bcd60e51b8152602060048201526018602482015277141c9bda9958dd081b9bc81b1bdb99d95c881bdc195b995960421b60448201526064016103d7565b6007828154811061049257610492612606565b60009182526020909120600a90910201600101546001600160a01b031633146104cd5760405162461bcd60e51b81526004016103d79061246a565b60008281526009602052604081205467ffffffffffffffff8111156104f4576104f461261c565b60405190808252806020026020018201604052801561051d578160200160208202803683370190505b50905060005b6000848152600960205260409020548110156105b457600084815260096020526040902080548290811061055957610559612606565b600091825260209091206005909102015482516001600160a01b039091169083908390811061058a5761058a612606565b6001600160a01b0390921660209283029190910190910152806105ac816125bf565b915050610523565b506003600784815481106105ca576105ca612606565b600091825260209091206009600a9092020101805460ff191660018360048111156105f7576105f76125f0565b021790555061060583611ae9565b60408051848152606060208201819052600f908201526e141493d29150d50811115311551151608a1b6080820152428183015290513391600080516020612633833981519152919081900360a00190a26040805180820190915260018152602081019190915292915050565b606080600060078054905067ffffffffffffffff8111156106945761069461261c565b6040519080825280602002602001820160405280156106bd578160200160208202803683370190505b5060075490915060009067ffffffffffffffff8111156106df576106df61261c565b604051908082528060200260200182016040528015610708578160200160208202803683370190505b5090506000805b600754811015610a435761090f6007828154811061072f5761072f612606565b90600052602060002090600a020160405180610140016040529081600082015481526020016001820160009054906101000a90046001600160a01b03166001600160a01b03166001600160a01b0316815260200160028201805461079290612584565b80601f01602080910402602001604051908101604052809291908181526020018280546107be90612584565b801561080b5780601f106107e05761010080835404028352916020019161080b565b820191906000526020600020905b8154815290600101906020018083116107ee57829003601f168201915b5050505050815260200160038201805461082490612584565b80601f016020809104026020016040519081016040528092919081815260200182805461085090612584565b801561089d5780601f106108725761010080835404028352916020019161089d565b820191906000526020600020905b81548152906001019060200180831161088057829003601f168201915b50505091835250506004828101546020830152600583015460408301526006830154606083015260078301546080830152600883015460a0830152600983015460c09092019160ff16908111156108f6576108f66125f0565b6004811115610907576109076125f0565b905250611c57565b15610a315760026007828154811061092957610929612606565b600091825260209091206009600a9092020101805460ff19166001836004811115610956576109566125f0565b02179055506109886007828154811061097157610971612606565b90600052602060002090600a020160000154611ae9565b6007818154811061099b5761099b612606565b90600052602060002090600a0201600001548483815181106109bf576109bf612606565b60200260200101818152505060096000600783815481106109e2576109e2612606565b90600052602060002090600a020160000154815260200190815260200160002080549050838381518110610a1857610a18612606565b602090810291909101015281610a2d816125bf565b9250505b80610a3b816125bf565b91505061070f565b50610a4e8382611c89565b9250610a5a8282611c89565b92959294509192505050565b6000803411610ab75760405162461bcd60e51b815260206004820152601f60248201527f4574686572206d7573742062652067726561746572207468616e207a65726f0060448201526064016103d7565b6000838152600a602052604090205460ff16610b095760405162461bcd60e51b8152602060048201526011602482015270141c9bda9958dd081b9bdd08199bdd5b99607a1b60448201526064016103d7565b600060078481548110610b1e57610b1e612606565b600091825260209091206009600a90920201015460ff166004811115610b4657610b466125f0565b14610b8e5760405162461bcd60e51b8152602060048201526018602482015277141c9bda9958dd081b9bc81b1bdb99d95c881bdc195b995960421b60448201526064016103d7565b600160046001016000828254610ba49190612514565b909155505060068054349190600090610bbe908490612514565b925050819055503460078481548110610bd957610bd9612606565b90600052602060002090600a02016005016000828254610bf99190612514565b92505081905550600160078481548110610c1557610c15612606565b90600052602060002090600a02016008016000828254610c359190612514565b90915550506000838152600960209081526040808320815160a08101835233815280840187815234938201939093524260608201526080810185905281546001808201845592865294849020815160059096020180546001600160a01b0319166001600160a01b0390961695909517855591518051929493610cbd9392850192910190611f0a565b506040828101516002830155606083015160038301556080909201516004909101805491151560ff1990921691909117905551339060008051602061263383398151915290610d3e9086904290918252606060208301819052600e908301526d141493d29150d508109050d2d15160921b6080830152604082015260a00190565b60405180910390a250600192915050565b600080855111610d995760405162461bcd60e51b81526020600482015260156024820152745469746c652063616e6e6f7420626520656d70747960581b60448201526064016103d7565b6000845111610dea5760405162461bcd60e51b815260206004820152601b60248201527f4465736372697074696f6e2063616e6e6f7420626520656d707479000000000060448201526064016103d7565b60008311610e305760405162461bcd60e51b8152602060048201526013602482015272436f73742063616e6e6f74206265207a65726f60681b60448201526064016103d7565b610e38611f8e565b60025481523360208083019182526040830188815260608401889052608084018790524260c085015260e084018690526007805460018101825560009190915284517fa66cc928b5edb82af9bd49922954155ab7b0942694bea4ce44661d9a8736c688600a90920291820190815593517fa66cc928b5edb82af9bd49922954155ab7b0942694bea4ce44661d9a8736c689820180546001600160a01b0319166001600160a01b0390921691909117905590518051859493610f1d937fa66cc928b5edb82af9bd49922954155ab7b0942694bea4ce44661d9a8736c68a01920190611f0a565b5060608201518051610f39916003840191602090910190611f0a565b506080820151816004015560a0820151816005015560c0820151816006015560e0820151816007015561010082015181600801556101208201518160090160006101000a81548160ff02191690836004811115610f9857610f986125f0565b021790555050600280546000908152600a602081815260408084208054600160ff1990911681179091553385526008835281852080548083018255908652948390208851959094029093019384558682015192840180546001600160a01b0319166001600160a01b0390941693909317909255908501518051869550929361102893908501929190910190611f0a565b5060608201518051611044916003840191602090910190611f0a565b506080820151816004015560a0820151816005015560c0820151816006015560e0820151816007015561010082015181600801556101208201518160090160006101000a81548160ff021916908360048111156110a3576110a36125f0565b021790555050506001600460000160008282546110c09190612514565b9091555050600280543391600080516020612633833981519152919060006110e7836125bf565b9091555060408051918252606060208301819052600f908301526e141493d29150d50810d49150551151608a1b6080830152429082015260a00160405180910390a250600195945050505050565b600060026007838154811061114c5761114c612606565b600091825260209091206009600a90920201015460ff166004811115611174576111746125f0565b1415806111bc575060036007838154811061119157611191612606565b600091825260209091206009600a90920201015460ff1660048111156111b9576111b96125f0565b14155b6112175760405162461bcd60e51b815260206004820152602660248201527f50726f6a656374206e6f74206d61726b656420617320726576657274206f722060448201526564656c65746560d01b60648201526084016103d7565b60026007838154811061122c5761122c612606565b600091825260209091206009600a9092020101805460ff19166001836004811115611259576112596125f0565b021790555061126782611ae9565b506001919050565b60006007858154811061128457611284612606565b60009182526020909120600a90910201600101546001600160a01b031633146112bf5760405162461bcd60e51b81526004016103d79061246a565b60008451116113085760405162461bcd60e51b81526020600482015260156024820152745469746c652063616e6e6f7420626520656d70747960581b60448201526064016103d7565b60008351116113595760405162461bcd60e51b815260206004820152601b60248201527f4465736372697074696f6e2063616e6e6f7420626520656d707479000000000060448201526064016103d7565b836007868154811061136d5761136d612606565b90600052602060002090600a02016002019080519060200190611391929190611f0a565b5082600786815481106113a6576113a6612606565b90600052602060002090600a020160030190805190602001906113ca929190611f0a565b5081600786815481106113df576113df612606565b90600052602060002090600a020160070181905550336001600160a01b0316600080516020612633833981519152864260405161144d929190918252606060208301819052600f908301526e141493d29150d50815541110551151608a1b6080830152604082015260a00190565b60405180910390a2506001949350505050565b600060016007838154811061147757611477612606565b600091825260209091206009600a90920201015460ff16600481111561149f5761149f6125f0565b146114e35760405162461bcd60e51b8152602060048201526014602482015273141c9bda9958dd081b9bdd081054141493d5915160621b60448201526064016103d7565b600782815481106114f6576114f6612606565b60009182526020909120600a90910201600101546001600160a01b031633148061152a57506000546001600160a01b031633145b6115465760405162461bcd60e51b81526004016103d79061246a565b61126782611d2e565b606060096000838152602001908152602001600020805480602002602001604051908101604052809291908181526020016000905b828210156116875760008481526020908190206040805160a081019091526005850290910180546001600160a01b0316825260018101805492939192918401916115cd90612584565b80601f01602080910402602001604051908101604052809291908181526020018280546115f990612584565b80156116465780601f1061161b57610100808354040283529160200191611646565b820191906000526020600020905b81548152906001019060200180831161162957829003601f168201915b505050918352505060028201546020808301919091526003830154604083015260049092015460ff1615156060909101529082526001929092019101611584565b505050509050919050565b60606007805480602002602001604051908101604052809291908181526020016000905b828210156118925760008481526020908190206040805161014081018252600a86029092018054835260018101546001600160a01b0316938301939093526002830180549293929184019161170a90612584565b80601f016020809104026020016040519081016040528092919081815260200182805461173690612584565b80156117835780601f1061175857610100808354040283529160200191611783565b820191906000526020600020905b81548152906001019060200180831161176657829003601f168201915b5050505050815260200160038201805461179c90612584565b80601f01602080910402602001604051908101604052809291908181526020018280546117c890612584565b80156118155780601f106117ea57610100808354040283529160200191611815565b820191906000526020600020905b8154815290600101906020018083116117f857829003601f168201915b50505091835250506004828101546020830152600583015460408301526006830154606083015260078301546080830152600883015460a0830152600983015460c09092019160ff169081111561186e5761186e6125f0565b600481111561187f5761187f6125f0565b81525050815260200190600101906116b6565b50505050905090565b6118a3611f8e565b6000828152600a602052604090205460ff166118f55760405162461bcd60e51b8152602060048201526011602482015270141c9bda9958dd081b9bdd08199bdd5b99607a1b60448201526064016103d7565b6007828154811061190857611908612606565b90600052602060002090600a020160405180610140016040529081600082015481526020016001820160009054906101000a90046001600160a01b03166001600160a01b03166001600160a01b0316815260200160028201805461196b90612584565b80601f016020809104026020016040519081016040528092919081815260200182805461199790612584565b80156119e45780601f106119b9576101008083540402835291602001916119e4565b820191906000526020600020905b8154815290600101906020018083116119c757829003601f168201915b505050505081526020016003820180546119fd90612584565b80601f0160208091040260200160405190810160405280929190818152602001828054611a2990612584565b8015611a765780601f10611a4b57610100808354040283529160200191611a76565b820191906000526020600020905b815481529060010190602001808311611a5957829003601f168201915b50505091835250506004828101546020830152600583015460408301526006830154606083015260078301546080830152600883015460a0830152600983015460c09092019160ff1690811115611acf57611acf6125f0565b6004811115611ae057611ae06125f0565b90525092915050565b60005b600082815260096020526040902054811015611c53576000828152600960205260408120805483908110611b2257611b22612606565b6000918252602080832060059092029091015485835260099091526040822080546001600160a01b0390921693509084908110611b6157611b61612606565b90600052602060002090600502016002015490506001600960008681526020019081526020016000208481548110611b9b57611b9b612606565b906000526020600020906005020160040160006101000a81548160ff02191690831515021790555042600960008681526020019081526020016000208481548110611be857611be8612606565b906000526020600020906005020160030181905550611c078282611ea5565b600160046001016000828254611c1d919061256d565b909155505060068054829190600090611c3790849061256d565b9250508190555050508080611c4b906125bf565b915050611aec565b5050565b60008160e001514210158015611c83575060008261012001516004811115611c8157611c816125f0565b145b92915050565b606060008267ffffffffffffffff811115611ca657611ca661261c565b604051908082528060200260200182016040528015611ccf578160200160208202803683370190505b50905060005b83811015611d2657848181518110611cef57611cef612606565b6020026020010151828281518110611d0957611d09612606565b602090810291909101015280611d1e816125bf565b915050611cd5565b509392505050565b600060078281548110611d4357611d43612606565b90600052602060002090600a02016005015490506000606460015483611d69919061254e565b611d73919061252c565b9050600460078481548110611d8a57611d8a612606565b600091825260209091206009600a9092020101805460ff19166001836004811115611db757611db76125f0565b0217905550611dfe60078481548110611dd257611dd2612606565b600091825260209091206001600a9092020101546001600160a01b0316611df9838561256d565b611ea5565b600054611e14906001600160a01b031682611ea5565b60078381548110611e2757611e27612606565b90600052602060002090600a02016005015460036000828254611e4a919061256d565b9091555050604080518481526060602082018190526010908201526f141493d29150d508141052510813d55560821b6080820152428183015290513391600080516020612633833981519152919081900360a00190a2505050565b6000826001600160a01b03168260405160006040518083038185875af1925050503d8060008114611ef2576040519150601f19603f3d011682016040523d82523d6000602084013e611ef7565b606091505b5050905080611f0557600080fd5b505050565b828054611f1690612584565b90600052602060002090601f016020900481019282611f385760008555611f7e565b82601f10611f5157805160ff1916838001178555611f7e565b82800160010185558215611f7e579182015b82811115611f7e578251825591602001919060010190611f63565b50611f8a929150611ffa565b5090565b6040518061014001604052806000815260200160006001600160a01b031681526020016060815260200160608152602001600081526020016000815260200160008152602001600081526020016000815260200160006004811115611ff557611ff56125f0565b905290565b5b80821115611f8a5760008155600101611ffb565b600082601f83011261202057600080fd5b813567ffffffffffffffff8082111561203b5761203b61261c565b604051601f8301601f19908116603f011681019082821181831017156120635761206361261c565b8160405283815286602085880101111561207c57600080fd5b836020870160208301376000602085830101528094505050505092915050565b600080600080608085870312156120b257600080fd5b843567ffffffffffffffff808211156120ca57600080fd5b6120d68883890161200f565b955060208701359150808211156120ec57600080fd5b506120f98782880161200f565b949794965050505060408301359260600135919050565b60006020828403121561212257600080fd5b5035919050565b6000806040838503121561213c57600080fd5b82359150602083013567ffffffffffffffff81111561215a57600080fd5b6121668582860161200f565b9150509250929050565b6000806000806080858703121561218657600080fd5b84359350602085013567ffffffffffffffff808211156121a557600080fd5b6121b18883890161200f565b945060408701359150808211156121c757600080fd5b506121d48782880161200f565b949793965093946060013593505050565b600081518084526020808501945080840160005b83811015612215578151875295820195908201906001016121f9565b509495945050505050565b6005811061223e57634e487b7160e01b600052602160045260246000fd5b9052565b6000815180845260005b818110156122685760208185018101518683018201520161224c565b8181111561227a576000602083870101525b50601f01601f19169290920160200192915050565b60006101408251845260208301516122b260208601826001600160a01b03169052565b5060408301518160408601526122ca82860182612242565b915050606083015184820360608601526122e48282612242565b9150506080830151608085015260a083015160a085015260c083015160c085015260e083015160e08501526101008084015181860152506101208084015161232e82870182612220565b5090949350505050565b60006020808301818452808551808352604092508286019150828160051b87010184880160005b838110156123cc57888303603f19018552815180516001600160a01b031684528781015160a08986018190529061239882870182612242565b838a0151878b015260608085015190880152608093840151151593909601929092525050938601939086019060010161235f565b509098975050505050505050565b6000602080830181845280855180835260408601915060408160051b870101925083870160005b8281101561242f57603f1988860301845261241d85835161228f565b94509285019290850190600101612401565b5092979650505050505050565b60408152600061244f60408301856121e5565b828103602084015261246181856121e5565b95945050505050565b602080825260139082015272556e617574686f72697a656420456e7469747960681b604082015260600190565b602080825282511515828201528281015160408084015280516060840181905260009291820190839060808601905b808310156124ef5783516001600160a01b031682529284019260019290920191908401906124c6565b509695505050505050565b60208152600061250d602083018461228f565b9392505050565b60008219821115612527576125276125da565b500190565b60008261254957634e487b7160e01b600052601260045260246000fd5b500490565b6000816000190483118215151615612568576125686125da565b500290565b60008282101561257f5761257f6125da565b500390565b600181811c9082168061259857607f821691505b602082108114156125b957634e487b7160e01b600052602260045260246000fd5b50919050565b60006000198214156125d3576125d36125da565b5060010190565b634e487b7160e01b600052601160045260246000fd5b634e487b7160e01b600052602160045260246000fd5b634e487b7160e01b600052603260045260246000fd5b634e487b7160e01b600052604160045260246000fdfeaee8e5d3bbb2f71a951b5632cee20f7ac487b9f8ab4f66a236f7694b13af7c6aa2646970667358221220fc59519df0ba79cd0c5b329ea162d709b01308556b3e0eb8626a46403ce8d88a64736f6c63430008070033",
  "linkReferences": {},
  "deployedLinkReferences": {}
}